:020000040000FA
:020000002A28AC
:08000800F1000308F2000A08F0
:10001000F3008C1E1F28831218080639031D26289A
:100020000408F000560884001A0880007008840054
:10003000D60A50305606031D1F284030D6007308DC
:100040008A0072088300F10E710E090018121A0856
:1000500018161F28A001A101A201A301A401A50156
:10006000A601A701A801A901AA010130AB00063031
:10007000AC004030D600D700F701F80186018701B7
:10008000FF3083168500F4008600F5008700F60037
:1000900083129A20D1015108D2000030D3000E21E2
:1000A000D10A0E305102031C4B28953083169F0055
:1000B000831280309F00283083169B0083121F1408
:1000C000FE308316920083120730920084202B1C8E
:1000D0007128973094200730A82084200030A82071
:1000E0008420AD012C082D0203186628CE24A130EF
:1000F0002D0794202F0D2E0D073994202F087F39BE
:1001000094208420AD0A7228560857060319080067
:100110005708840000082522D70A50305706031DCF
:1001200084284030D70084288316981C9528831291
:100130009900080083162F3099001815831298171C
:10014000831698168C16831218160B178B17080037
:10015000DA01D900D100D501D4010314D50DD40D95
:10016000D1080319BE28D103AE28D10A07305106A1
:100170000319C928D90A0310D50DD40D2608550531
:10018000031DB52825085405031DB5288524DA0C60
:10019000B5280310DA0C5A0894200800871B0314B2
:1001A0000800071B03140800871A03140800071A25
:1001B0000314080087190314080006180314080024
:1001C000061A03140800861B03140800061B0314F8
:1001D0000800861A0314080007190314080087187A
:1001E00003140800071803140800861803140800F5
:1001F000853004298D30042995300429A53004293F
:10020000873004298F3004299F001F1905291E08F3
:10021000AE0083161E088312AF000800003053069C
:10022000031D5329982C26102810F61776088316DC
:10023000870083120800A610A81076171629261129
:100240002811F6161629A611A811761616292612B7
:100250002812F6151629A612A81275147508831609
:100260008600831208002613281375162E29A6135C
:10027000A813F5172E292510271075172E29A5105C
:10028000A710F5162E292511271176151629A51167
:10029000A711F61416292512271276141629A5126D
:1002A000A712F5142E290130530603198A29AA2C06
:1002B0000800080026152811F6121629A615A811FF
:1002C0007612162926162812F6111629A616A81235
:1002D00075102E292617281375122E29A617A81374
:1002E000F5132E292514271075132E29A514A710F0
:1002F000F5122E292515271176111629A515A711F6
:10030000F61016292516271276101629A516A712FB
:10031000F5102E290230530603190800BC2C0800E2
:10032000080026152815F6121629A615A815761206
:10033000162926162816F6111629A616A8167510BF
:100340002E292617281775122E29A617A817F51378
:100350002E292514271475132E29A514A714F51278
:100360002E292515271576111629A515A715F6107E
:1003700016292516271676101629A516A716F51084
:100380002E29780887000800770886000800F817EB
:10039000031CF813C1297817031C7813C129F81618
:1003A000031CF812C1297816031C7812C129F8150C
:1003B000031CF811C1297714031C7710C429771680
:1003C000031C7712C429F717031CF713C4297717E6
:1003D000031C7713C429F716031CF712C4297815D8
:1003E000031C7811C129F814031CF810C1297814D2
:1003F000031C7810C129F714031CF710C429AB01A2
:1004000008002B1408000301102A0130102A0230C2
:10041000102A0330102A0430102A0530102A063022
:10042000AC0008000230A0005808A100080001300C
:10043000A0005808A100080024140800F0309420FF
:1004400000309420013094200800D800A00803193F
:100450007A2AA00322302007840058088000A108CF
:1004600003190800A008031D0800D82C0230D3008F
:100470002308D200093C03194F2A013E0319492AD7
:10048000013E031D782A0E2122089B000C309D009E
:10049000782A0E21220895000C309700782A0E2128
:1004A0002208831695000C3097008312782A782A48
:1004B0000030D3002208D200093C03196B2A013E08
:1004C0000319682A013E031D782A0E219D01782A0E
:1004D0000E219701782A0E21831697018312782A1C
:1004E0002308D2000230D3000E21782A782A782AF5
:1004F000A1010800D81B002C2808FF3A2605D500CA
:100500002708FF3A2505D400241CB22AD51F8C2ABF
:10051000031058180314E321541C922A0310D8180E
:100520000314E721D41C982A031058190314EB2153
:10053000541D9E2A0310D8190314EF21D41DA42A98
:100540000310581A0314F321541EAA2A0310D81AB0
:100550000314F721D41EB02A0310581B0314FB21E7
:10056000A4010800551CB82A031058180314C72109
:10057000D51CBE2A0310D8180314CB21551DC42A3C
:10058000031058190314CF21D51DCA2A0310D819F6
:100590000314D321551ED02A0310581A0314D7214F
:1005A000D51ED62A0310D81A0314DB21551FDC2AC6
:0A05B0000310581B0314DF2108009C
:1008000004308A0058087F3982070800080013293D
:100810001B291F29232927292B29332937293B293C
:100820003F29432947294B294F2908000800080080
:10083000080008000800FF29012A08000800080035
:1008400008000800080008000800032A052A072AF3
:10085000092A0B2A0D2A0F2A0800080008000800A0
:100860000800080008000800080008000800080048
:100870000800080008000800080008000800080038
:100880000800080008000800080008000800080028
:1008900008000800080008000800582959295A29AA
:1008A0005E29622966296A296E29722976297A29A0
:1008B0007E2982298629080008000800080008000F
:1008C00008000800080008000800080008000800E8
:1008D000080008001C2A080008000800080008009A
:1008E000080008000800080008001E2A0800080088
:1008F0000800080008000800080008000800172A7F
:10090000122A172A122A172A080004308A005908C6
:1009100003108207CE28D128D428D728DA28DD284A
:10092000E028E328E628E928EC28EF28F228F52833
:1009300004308A005208820713291B291F29232902
:1009400027292B29332937293B293F29432947299F
:100950004B294F2904308A00520882075829592907
:100960005A295E29622966296A296E2972297629FF
:100970007A297E298229862904308A005208820732
:100980008F2990299129952999299D29A129A5295E
:10099000A929AD29B129B529B929BD2904308A0071
:1009A0002D088207F828FA28FC28FE2800290229A9
:1009B00004308A00FA3021028207582A362A762A21
:0409C000702A772AF8
:02400E00A23FCF
:02401000BC3FB3
:00000001FF
